:1000000000308A0065290000FF00030E8301A6006E
:100010007F08A5000A08AD008A01A50E0408A70004
:100020002008A8002108A9002208AA002308AB0084
:100030002408AC00831383128B1E20280B1964281C
:10004000270884002808A0002908A1002A08A20087
:100050002B08A3002C08A4002D088A00260E83007C
:10006000FF0E7F0E0900E201E101E208031D632893
:100070006108093C031C63285F080139A000A30143
:1000800020082304031D4628871147288715831657
:10009000871103108312E00CDF0C0630A000A00BC8
:1000A0004F28000083168712831287160630A0009F
:1000B000A00B582800008316871283128712E10ACA
:1000C0000319E20A35280034831607138312071731
:1000D0004208043C031D6E28C2016F28C20A420D6B
:1000E000A000A00DFC30A0052008023E2E3E84009A
:1000F000840A0008DE0084030008DD005E08E000DA
:100100005D08DF003320420DA000A00DFC30A005EB
:1001100020082E3E8400840A0008DE0084030008C4
:10012000DD005E08E0005D08DF0033208316071263
:10013000831207160630A000A00B9C28000083162F
:100140000712831207120630A000A00BA52800009A
:1001500083160713831207130B118A1120285630B8
:10016000840000080319C1280630A100A001A00BDB
:10017000B728A10BB6287B30A000A00BBD28800BB0
:10018000B428003456080739A000560CA100A10C71
:10019000A10C1F30A1052108570784000008A10009
:1001A000A00AD328A10CA00BD22800345608073986
:1001B000A000560CA100A10CA10C1F30A105210824
:1001C00058078400A101A10AA00AE728A10DA00BED
:1001D000E628D7080319EF2821088004F228A1098E
:1001E000210880050034D6015608043C031C64290C
:1001F000D608031D1629560DA000A00DFC30A00541
:1002000020082E3E8400840A01308000840380018F
:10021000560DA000A00DFC30A0052008023E2E3E89
:100220008400840A80018403800162295608043C0A
:10023000031D3529560DA000A00DFC30A005200897
:100240002E3E8400840A0230800084038001560D13
:10025000A000A00DFC30A0052008023E2E3E840028
:10026000840A8001840380016229560DA000A00D3C
:10027000FC30A00520082E3E8400840A80018403FF
:100280008001560DA000A00DFC30A0052008023E04
:100290002E3E840006305607A100A3010318A30ACE
:1002A0002108A000A3010130A200A00803195D29C4
:1002B0000310A20DA30DA00B582922088000840A68
:1002C00023088000D60AF428003484011F308305F7
:1002D00003171F109F101F119F1103131F130030CE
:1002E00003179E0099019A0183169E0183129B01B8
:1002F00003138D12C2010030831685008600871219
:1003000083128712831687118312871183160712AF
:100310008312071283160108C03904388100831242
:100320008B16C0308B043230D600AF2083160710F6
:10033000831207140130C30051140230C400D114D9
:100340000330C50051150430C600D1150530C70073
:100350005116D5015508633C031CCA2A5030D600FB
:10036000AF20D4015408043C031CC82A5408D6000A
:100370005130D700C220211CCF29433054078400BC
:100380000008053C031DCA295408D600D701513086
:10039000D800D620433054078400800ADF29433038
:1003A00054078400000BDB295408D6000130D70025
:1003B0005130D800D6204330540784008003D4083D
:1003C000031D252A540DA000A00DFC30A005200817
:1003D0002E3ED7004330540784000008A000A3013C
:1003E0000130A200A0080319FA290310A20DA30DE1
:1003F000A00BF529231457088400840A23088000E1
:10040000840322088000540DA000A00DFC30A0053C
:100410002008023E2E3ED7004330540784000008D7
:10042000A000A3010130A200A00803191C2A031098
:10043000A20DA30DA00B172A57088400840A2308D5
:100440008000840322088000C62A5408043C031D4F
:100450006C2A540DA000A00DFC30A00520082E3EF3
:10046000D7004330540784000008A000A3010130E6
:10047000A200A0080319412A0310A20DA30DA00B8E
:100480003C2AA31457088400840A230880008403AC
:1004900022088000540DA000A00DFC30A00520080B
:1004A000023E2E3ED7004330540784000008A000CF
:1004B000A3010130A200A0080319632A0310A20DB2
:1004C000A30DA00B5E2A57088400840A230880002D
:1004D000840322088000C62A540DA000A00DFC3021
:1004E000A00520082E3ED7004330540784000008A2
:1004F000A000A3010130A200A0080319842A031060
:10050000A20DA30DA00B7F2A57088400840A23089C
:100510008000840322088000540DA000A00DFC3050
:10052000A0052008023E2E3ED70006305407A10049
:10053000A3010318A30A2108A000D9010130D800A3
:10054000A0080319A82A0310D80DD90DA00BA32ABF
:100550004330540784000008A000A3010130A2002A
:10056000A0080319B82A0310A20DA30DA00BB32AEB
:1005700022085804A00023085904A3005708840047
:10058000840A23088000840320088000D40AB2294A
:10059000D50AAA290230C30051140930C400D11071
:1005A0000230C50051150930C600D1110230C70014
:1005B00051160930C800D1120230C9005117093054
:1005C000CA00D1130230CB0052140930CC00D21033
:1005D0000230CD0052150930CE00D2110230CF00CA
:1005E00052160930D000D212D5015508633C031CC5
:1005F0009A2B5030D600AF20F320D40154080D3C84
:10060000031C982B5408D6005130D700C220211C5F
:100610001B2B4330540784000008093C031D162B94
:100620005408D600D7015130D800D62043305407A3
:100630008400800A2D2B4330540784000008023CBC
:10064000031D292B5408D6000130D7005130D800A3
:10065000D6204330540784008003D3015308043C60
:10066000031C962B4330540784000008D600013049
:10067000530756020319942B031C942B4330540741
:1006800084000008D7000630530757020318942B44
:10069000541C6F2B530DA000A00DFC30A0052008AA
:1006A0002E3E84000310540CA301A000A3010130CE
:1006B000A200A0080319612B0310A20DA30DA00B2B
:1006C0005C2B22080004A000840A23080004A30075
:1006D000200884038000840A23088000942B530D93
:1006E000A000A00DFC30A0052008023E2E3E840094
:1006F0000310540CA301A000A3010130A200A00824
:100700000319872B0310A20DA30DA00B822B220827
:100710000004A000840A23080004A3002008840326
:100720008000840A23088000D30A2E2BD40AFE2AD4
:10073000D50AF52AF320D5015508313C031C002CBD
:10074000A030D600AF20F320D4015408043C031C91
:10075000FE2B551CD42B540DA000A00DFC30A00581
:1007600020082E3E840000087F38A000840A00087C
:10077000A300200884038000840A23088000540D0D
:10078000A000A00DFC30A0052008023E2E3E8400F3
:100790000008A000840A0008A30020088403800049
:1007A000840A23088000FC2B540DA000A00DFC300F
:1007B000A00520082E3E84000008A000840A00083E
:1007C000A300200884038000840A23088000540DBD
:1007D000A000A00DFC30A0052008023E2E3E8400A3
:1007E00000087F38A000840A0008A30020088403C2
:1007F0008000840A23088000D40AA52BD50A9C2BEC
:10080000F320D3015308013C031CFE2CC301C40197
:10081000C501C601C701D4015408043C031C7B2C4C
:10082000D5015508063C031C792C5030D600AF206A
:10083000540DA000A00DFC30A00520082E3ED700CE
:100840008400840A0008D90084030008D8004330DB
:10085000540784000008A000A3010130A200A008F2
:100860000319372C0310A20DA30DA00B322C220864
:100870005804A00023085904A30057088400840AE0
:1008800023088000840320088000540DA000A00DE0
:10089000FC30A0052008023E2E3ED7008400840ACA
:1008A0000008D90084030008D800433054078400AE
:1008B0000008A000A3010130A200A0080319652CC4
:1008C0000310A20DA30DA00B602C22085804A00059
:1008D00023085904A30057088400840A23088000D1
:1008E000840320088000433054078400800AD50A1E
:1008F000112CD40A0C2CC301C401C501C601C701C7
:10090000D4015408043C031CFC2CD5015508063CBA
:10091000031CFA2C5030D600AF20540DA000A00DBF
:10092000FC30A00520082E3ED7008400840A000871
:10093000D90084030008D80043305407840000081D
:10094000A000A3010130A200A0080319AC2C0310E1
:10095000A20DA30DA00BA72C2208A001A003A006A6
:10096000FF30A30620085805A00023085905A3005E
:1009700057088400840A230880008403200880002C
:10098000540DA000A00DFC30A0052008023E2E3E14
:10099000D7008400840A0008D90084030008D80026
:1009A0004330540784000008A000A3010130A200D6
:1009B000A0080319E02C0310A20DA30DA00BDB2C43
:1009C0002208A001A003A006FF30A30620085805B6
:1009D000A00023085905A30057088400840A2308AF
:1009E0008000840320088000433054078400800A7C
:1009F000D50A862CD40A812CD30A022C9A296300AA
:02400E00E23F8F
:00000001FF
;PIC16F687
